:060000000200600201C6CF
:0300130002021BCB
:1000600075815E750D00C2B4758920758DFA758B2A
:1000700000C2ABD28E1201847A0C12013C12023201
:10008000759870D2AFD2A8D2AA75815E900094C044
:1000900082C08332750A003098FDC298E50AB40028
:1000A0002CE599B42409750912750A0F0200CDB424
:1000B0004709750912750A0F0200CDB45009750978
:1000C00012750A0F0200CD750A0002009785990883
:1000D000E508B42A0DA809A6081202BF750A000295
:1000E0000097A809A6080509E509B45EAA750A00E3
:1000F000020097E50CD2E7FA12013C7812A90BB680
:100100002C1608D9FAE6642C6012E6642A600DE623
:10011000FA12016008020105080200FF0022C291E4
:10012000D2924390F0D293E590C29354F0FF439063
:10013000F0D293E590C29354F0C44F2212011E20D6
:10014000E7FAC291C292EA54F053900F4290D293D0
:10015000C293EA540FC453900F4290D293C2932299
:1001600012011E20E7FAD291C292EA54F053900F86
:100170004290D293C293EA540FC453900F4290D24C
:1001800093C29322759000C291C2927A0343903039
:10019000D293C2931201BDDAF753900F439020D24D
:1001A00093C2937A2812013C7A0112013C7A06121A
:1001B000013C7A0E12013C7A8012013C227C047BC5
:1001C000FFDBFEDCFA22C2AF7B1ED2B20020B248B7
:1001D000DBF8050DE50DB40503750D00E50DB40064
:1001E00006120232020208B4010612023B020208A1
:1001F000B40206120244020208B4030612024D02BF
:100200000208B404D4120256D2B20030B2FA758198
:100210005E900089C082C083D2AF32C2AF7B1ED253
:10022000B30020B30ADBF8B2B7D2B30030B3FAD2CE
:10023000AF3290027F750C04020265900288750C43
:1002400004020265900290750C000202659002A102
:10025000750C010202659002B1750C0402026590F2
:1002600002BA750C067A0112013C740093B4FF03C4
:1002700002027EF50B1203BF050CA302026A22558F
:100280005443A054494D45FF4C41542F4C4F4EFF11
:100290005350454544A04FA0472D2D4B6E6F7473AE
:1002A000FF434F55525345A04FA0472D2D4445477E
:1002B000FF555443A044415445FF4E415621FF7819
:1002C000127902B62C0C08D9FAB6560A12030302A8
:1002D0000302080202C3E50DB4000612032B020359
:1002E00002B40106120338020302B4020612039894
:1002F000020302B403061203A5120302B40403129C
:1003000003B2221203CD750C46750B4E1203BF7556
:100310000C47750B411203BF750C48750B56120341
:10032000BF750C49750B211203BF221203CD750C4A
:1003300045750B011200F3227A0112013C750C0085
:10034000750B4C1203BF750C01750B411203BF7581
:100350000C02750B541203BF750B03750C051200CC
:10036000F3750B04750C0F1200F3750C40750B4CF4
:100370001203BF750C41750B4F1203BF750C42750C
:100380000B4E1203BF750B05750C441200F3750B71
:1003900006750C4F1200F3221203CD750B07750C76
:1003A000461200F3221203CD750B08750C4612009D
:1003B000F3221203CD750B09750C451200F322E5EB
:1003C0000CD2E7FA12013CAA0B120160227E40EE29
:1003D000D2E7FA12013C7A201201600EBE51F922D6
